{
  "contractName": "BotManagement",
  "abi": [
    {
      "constant": true,
      "inputs": [
        {
          "name": "",
          "type": "uint256"
        }
      ],
      "name": "accountList",
      "outputs": [
        {
          "name": "",
          "type": "address"
        }
      ],
      "payable": false,
      "stateMutability": "view",
      "type": "function"
    },
    {
      "constant": true,
      "inputs": [
        {
          "name": "",
          "type": "uint256"
        }
      ],
      "name": "botList",
      "outputs": [
        {
          "name": "",
          "type": "address"
        }
      ],
      "payable": false,
      "stateMutability": "view",
      "type": "function"
    },
    {
      "inputs": [
        {
          "name": "_vaddress",
          "type": "address"
        },
        {
          "name": "_address",
          "type": "address"
        }
      ],
      "payable": false,
      "stateMutability": "nonpayable",
      "type": "constructor"
    },
    {
      "constant": false,
      "inputs": [
        {
          "name": "plate_id",
          "type": "string"
        },
        {
          "name": "bot_address",
          "type": "address"
        },
        {
          "name": "timestamp",
          "type": "uint256"
        }
      ],
      "name": "addLog",
      "outputs": [],
      "payable": false,
      "stateMutability": "nonpayable",
      "type": "function"
    },
    {
      "constant": true,
      "inputs": [
        {
          "name": "plate_id",
          "type": "string"
        },
        {
          "name": "index",
          "type": "uint256"
        }
      ],
      "name": "getLogs",
      "outputs": [
        {
          "name": "",
          "type": "string"
        },
        {
          "name": "",
          "type": "address"
        },
        {
          "name": "",
          "type": "uint256"
        }
      ],
      "payable": false,
      "stateMutability": "view",
      "type": "function"
    },
    {
      "constant": true,
      "inputs": [
        {
          "name": "plate_id",
          "type": "string"
        }
      ],
      "name": "getLogsLength",
      "outputs": [
        {
          "name": "",
          "type": "uint256"
        }
      ],
      "payable": false,
      "stateMutability": "view",
      "type": "function"
    },
    {
      "constant": false,
      "inputs": [
        {
          "name": "_type",
          "type": "string"
        },
        {
          "name": "_price",
          "type": "int256"
        }
      ],
      "name": "setPrice",
      "outputs": [],
      "payable": false,
      "stateMutability": "nonpayable",
      "type": "function"
    },
    {
      "constant": false,
      "inputs": [
        {
          "name": "_address",
          "type": "address"
        }
      ],
      "name": "setBotAddr",
      "outputs": [
        {
          "name": "",
          "type": "bool"
        }
      ],
      "payable": false,
      "stateMutability": "nonpayable",
      "type": "function"
    },
    {
      "constant": true,
      "inputs": [],
      "name": "getAccountLenght",
      "outputs": [
        {
          "name": "count",
          "type": "uint256"
        }
      ],
      "payable": false,
      "stateMutability": "view",
      "type": "function"
    },
    {
      "constant": true,
      "inputs": [],
      "name": "getBotLenght",
      "outputs": [
        {
          "name": "count",
          "type": "uint256"
        }
      ],
      "payable": false,
      "stateMutability": "view",
      "type": "function"
    },
    {
      "constant": true,
      "inputs": [
        {
          "name": "timestamp",
          "type": "uint256"
        }
      ],
      "name": "getDate",
      "outputs": [
        {
          "name": "",
          "type": "uint256"
        },
        {
          "name": "",
          "type": "uint256"
        },
        {
          "name": "",
          "type": "uint256"
        },
        {
          "name": "",
          "type": "uint256"
        },
        {
          "name": "",
          "type": "uint256"
        },
        {
          "name": "",
          "type": "uint256"
        }
      ],
      "payable": false,
      "stateMutability": "view",
      "type": "function"
    },
    {
      "constant": true,
      "inputs": [
        {
          "name": "_address",
          "type": "address"
        }
      ],
      "name": "getBotInfo",
      "outputs": [
        {
          "name": "",
          "type": "address"
        },
        {
          "name": "",
          "type": "string"
        },
        {
          "name": "",
          "type": "string"
        },
        {
          "name": "",
          "type": "string"
        },
        {
          "name": "",
          "type": "int256"
        }
      ],
      "payable": false,
      "stateMutability": "view",
      "type": "function"
    },
    {
      "constant": true,
      "inputs": [],
      "name": "checkPermission",
      "outputs": [
        {
          "name": "",
          "type": "int256"
        }
      ],
      "payable": false,
      "stateMutability": "view",
      "type": "function"
    },
    {
      "constant": false,
      "inputs": [
        {
          "name": "_address",
          "type": "address"
        },
        {
          "name": "_type",
          "type": "int256"
        }
      ],
      "name": "addPermission",
      "outputs": [
        {
          "name": "",
          "type": "bool"
        }
      ],
      "payable": false,
      "stateMutability": "nonpayable",
      "type": "function"
    },
    {
      "constant": false,
      "inputs": [
        {
          "name": "_address",
          "type": "address"
        },
        {
          "name": "_addressInfo",
          "type": "string"
        },
        {
          "name": "_Lat",
          "type": "string"
        },
        {
          "name": "_Long",
          "type": "string"
        }
      ],
      "name": "addBot",
      "outputs": [
        {
          "name": "",
          "type": "bool"
        }
      ],
      "payable": false,
      "stateMutability": "nonpayable",
      "type": "function"
    },
    {
      "constant": false,
      "inputs": [
        {
          "name": "_address",
          "type": "address"
        }
      ],
      "name": "addAccount",
      "outputs": [
        {
          "name": "",
          "type": "bool"
        }
      ],
      "payable": false,
      "stateMutability": "nonpayable",
      "type": "function"
    },
    {
      "constant": true,
      "inputs": [
        {
          "name": "_address",
          "type": "address"
        }
      ],
      "name": "checkAccount",
      "outputs": [
        {
          "name": "",
          "type": "bool"
        }
      ],
      "payable": false,
      "stateMutability": "view",
      "type": "function"
    },
    {
      "constant": true,
      "inputs": [
        {
          "name": "index",
          "type": "uint256"
        }
      ],
      "name": "getAccount",
      "outputs": [
        {
          "name": "",
          "type": "address"
        },
        {
          "name": "",
          "type": "int256"
        }
      ],
      "payable": false,
      "stateMutability": "view",
      "type": "function"
    },
    {
      "constant": false,
      "inputs": [
        {
          "name": "_address",
          "type": "address"
        }
      ],
      "name": "addCoin",
      "outputs": [
        {
          "name": "",
          "type": "bool"
        }
      ],
      "payable": true,
      "stateMutability": "payable",
      "type": "function"
    },
    {
      "constant": false,
      "inputs": [],
      "name": "addCoin",
      "outputs": [
        {
          "name": "",
          "type": "bool"
        }
      ],
      "payable": true,
      "stateMutability": "payable",
      "type": "function"
    },
    {
      "constant": true,
      "inputs": [
        {
          "name": "_address",
          "type": "address"
        }
      ],
      "name": "getBalance",
      "outputs": [
        {
          "name": "",
          "type": "int256"
        }
      ],
      "payable": false,
      "stateMutability": "view",
      "type": "function"
    },
    {
      "constant": true,
      "inputs": [],
      "name": "getNow",
      "outputs": [
        {
          "name": "",
          "type": "uint256"
        }
      ],
      "payable": false,
      "stateMutability": "view",
      "type": "function"
    },
    {
      "constant": false,
      "inputs": [
        {
          "name": "_address",
          "type": "address"
        },
        {
          "name": "_plate_id",
          "type": "string"
        }
      ],
      "name": "verifyVehicle",
      "outputs": [
        {
          "name": "",
          "type": "bool"
        }
      ],
      "payable": false,
      "stateMutability": "nonpayable",
      "type": "function"
    }
  ],
  "bytecode": "0x6080604052600060015534801561001557600080fd5b50604051604080612f3d833981018060405281019080805190602001909291908051906020019092919050505081600560006101000a81548173ffffffffffffffffffffffffffffffffffffffff021916908373ffffffffffffffffffffffffffffffffffffffff16021790555081600460006101000a81548173ffffffffffffffffffffffffffffffffffffffff021916908373ffffffffffffffffffffffffffffffffffffffff16021790555080600b60008373ffffffffffffffffffffffffffffffffffffffff1673ffffffffffffffffffffffffffffffffffffffff16815260200190815260200160002060000160006101000a81548173ffffffffffffffffffffffffffffffffffffffff021916908373ffffffffffffffffffffffffffffffffffffffff1602179055506001600b60008373ffffffffffffffffffffffffffffffffffffffff1673ffffffffffffffffffffffffffffffffffffffff1681526020019081526020016000206001018190555073e8660491d945560fecb719bdb96479bed17c577c600660006101000a81548173ffffffffffffffffffffffffffffffffffffffff021916908373ffffffffffffffffffffffffffffffffffffffff1602179055505050612d4a806101f36000396000f300608060405260043610610128576000357c0100000000000000000000000000000000000000000000000000000000900463ffffffff168063038258a01461012d57806316da86321461025a57806319dafbb4146102a85780632b57298b146102d35780632d6019851461033757806330b3183c1461035957806330fe49e5146103d65780633d2cffdd1461043b5780634ea98d16146105615780635a1c5830146105ce57806369921c26146105f95780637456893b1461065457806387669386146106f557806393c618de146107885780639e9c42f3146107b3578063aedcd3f814610820578063bbe4fd501461087b578063ce88b145146108a6578063da6fdf821461091a578063e89b0e1e1461098d578063f8b2cb4f146109e8578063fb4aaf0f14610a3f575b600080fd5b34801561013957600080fd5b50610240600480360381019080803573ffffffffffffffffffffffffffffffffffffffff169060200190929190803590602001908201803590602001908080601f0160208091040260200160405190810160405280939291908181526020018383808284378201915050505050509192919290803590602001908201803590602001908080601f0160208091040260200160405190810160405280939291908181526020018383808284378201915050505050509192919290803590602001908201803590602001908080601f0160208091040260200160405190810160405280939291908181526020018383808284378201915050505050509192919290505050610c0d565b604051808215151515815260200191505060405180910390f35b61028e600480360381019080803573ffffffffffffffffffffffffffffffffffffffff169060200190929190505050610d79565b604051808215151515815260200191505060405180910390f35b3480156102b457600080fd5b506102bd610e1a565b6040518082815260200191505060405180910390f35b3480156102df57600080fd5b506102fe60048036038101908080359060200190929190505050610e27565b60405180878152602001868152602001858152602001848152602001838152602001828152602001965050505050505060405180910390f35b61033f611346565b604051808215151515815260200191505060405180910390f35b34801561036557600080fd5b506103c0600480360381019080803590602001908201803590602001908080601f016020809104026020016040519081016040528093929190818152602001838380828437820191505050505050919291929050505061147a565b6040518082815260200191505060405180910390f35b3480156103e257600080fd5b50610421600480360381019080803573ffffffffffffffffffffffffffffffffffffffff169060200190929190803590602001909291905050506114f2565b604051808215151515815260200191505060405180910390f35b34801561044757600080fd5b506104ac600480360381019080803590602001908201803590602001908080601f0160208091040260200160405190810160405280939291908181526020018383808284378201915050505050509192919290803590602001909291905050506115e0565b60405180806020018473ffffffffffffffffffffffffffffffffffffffff1673ffffffffffffffffffffffffffffffffffffffff168152602001838152602001828103825285818151815260200191508051906020019080838360005b83811015610524578082015181840152602081019050610509565b50505050905090810190601f1680156105515780820380516001836020036101000a031916815260200191505b5094505050505060405180910390f35b34801561056d57600080fd5b5061058c60048036038101908080359060200190929190505050611828565b604051808273ffffffffffffffffffffffffffffffffffffffff1673ffffffffffffffffffffffffffffffffffffffff16815260200191505060405180910390f35b3480156105da57600080fd5b506105e3611866565b6040518082815260200191505060405180910390f35b34801561060557600080fd5b5061063a600480360381019080803573ffffffffffffffffffffffffffffffffffffffff1690602001909291905050506118b0565b604051808215151515815260200191505060405180910390f35b34801561066057600080fd5b506106db600480360381019080803573ffffffffffffffffffffffffffffffffffffffff169060200190929190803590602001908201803590602001908080601f016020809104026020016040519081016040528093929190818152602001838380828437820191505050505050919291929050505061195c565b604051808215151515815260200191505060405180910390f35b34801561070157600080fd5b50610786600480360381019080803590602001908201803590602001908080601f0160208091040260200160405190810160405280939291908181526020018383808284378201915050505050509192919290803573ffffffffffffffffffffffffffffffffffffffff16906020019092919080359060200190929190505050612037565b005b34801561079457600080fd5b5061079d612518565b6040518082815260200191505060405180910390f35b3480156107bf57600080fd5b506107de60048036038101908080359060200190929190505050612525565b604051808273ffffffffffffffffffffffffffffffffffffffff1673ffffffffffffffffffffffffffffffffffffffff16815260200191505060405180910390f35b34801561082c57600080fd5b50610861600480360381019080803573ffffffffffffffffffffffffffffffffffffffff169060200190929190505050612563565b604051808215151515815260200191505060405180910390f35b34801561088757600080fd5b506108906125c2565b6040518082815260200191505060405180910390f35b3480156108b257600080fd5b506108d1600480360381019080803590602001909291905050506125ca565b604051808373ffffffffffffffffffffffffffffffffffffffff1673ffffffffffffffffffffffffffffffffffffffff1681526020018281526020019250505060405180910390f35b34801561092657600080fd5b5061098b600480360381019080803590602001908201803590602001908080601f0160208091040260200160405190810160405280939291908181526020018383808284378201915050505050509192919290803590602001909291905050506126ee565b005b34801561099957600080fd5b506109ce600480360381019080803573ffffffffffffffffffffffffffffffffffffffff169060200190929190505050612765565b604051808215151515815260200191505060405180910390f35b3480156109f457600080fd5b50610a29600480360381019080803573ffffffffffffffffffffffffffffffffffffffff1690602001909291905050506128d1565b6040518082815260200191505060405180910390f35b348015610a4b57600080fd5b50610a80600480360381019080803573ffffffffffffffffffffffffffffffffffffffff16906020019092919050505061291d565b604051808673ffffffffffffffffffffffffffffffffffffffff1673ffffffffffffffffffffffffffffffffffffffff168152602001806020018060200180602001858152602001848103845288818151815260200191508051906020019080838360005b83811015610b00578082015181840152602081019050610ae5565b50505050905090810190601f168015610b2d5780820380516001836020036101000a031916815260200191505b50848103835287818151815260200191508051906020019080838360005b83811015610b66578082015181840152602081019050610b4b565b50505050905090810190601f168015610b935780820380516001836020036101000a031916815260200191505b50848103825286818151815260200191508051906020019080838360005b83811015610bcc578082015181840152602081019050610bb1565b50505050905090810190601f168015610bf95780820380516001836020036101000a031916815260200191505b509850505050505050505060405180910390f35b6000806001610c1a611866565b1415610d6b57600a60008773ffffffffffffffffffffffffffffffffffffffff1673ffffffffffffffffffffffffffffffffffffffff1681526020019081526020016000209050858160000160006101000a81548173ffffffffffffffffffffffffffffffffffffffff021916908373ffffffffffffffffffffffffffffffffffffffff16021790555084816001019080519060200190610cbc929190612c79565b5083816002019080519060200190610cd5929190612c79565b5082816003019080519060200190610cee929190612c79565b5060018160040181905550600160098790806001815401808255809150509060018203906000526020600020016000909192909190916101000a81548173ffffffffffffffffffffffffffffffffffffffff021916908373ffffffffffffffffffffffffffffffffffffffff160217905550505060019150610d70565b600091505b50949350505050565b6000610d84826118b0565b15610e155734600860008473ffffffffffffffffffffffffffffffffffffffff1673ffffffffffffffffffffffffffffffffffffffff1681526020019081526020016000206001015401600860008473ffffffffffffffffffffffffffffffffffffffff1673ffffffffffffffffffffffffffffffffffffffff168152602001908152602001600020600101819055505b919050565b6000600780549050905090565b600080600080600080600080600080600080600660009054906101000a900473ffffffffffffffffffffffffffffffffffffffff1673ffffffffffffffffffffffffffffffffffffffff166392d663138e6040518263ffffffff167c010000000000000000000000000000000000000000000000000000000002815260040180828152602001915050602060405180830381600087803b158015610eca57600080fd5b505af1158015610ede573d6000803e3d6000fd5b505050506040513d6020811015610ef457600080fd5b810190808051906020019092919050505061ffff169550600660009054906101000a900473ffffffffffffffffffffffffffffffffffffffff1673ffffffffffffffffffffffffffffffffffffffff1663a324ad248e6040518263ffffffff167c010000000000000000000000000000000000000000000000000000000002815260040180828152602001915050602060405180830381600087803b158015610f9c57600080fd5b505af1158015610fb0573d6000803e3d6000fd5b505050506040513d6020811015610fc657600080fd5b810190808051906020019092919050505061ffff169450600660009054906101000a900473ffffffffffffffffffffffffffffffffffffffff1673ffffffffffffffffffffffffffffffffffffffff166365c728408e6040518263ffffffff167c010000000000000000000000000000000000000000000000000000000002815260040180828152602001915050602060405180830381600087803b15801561106e57600080fd5b505af1158015611082573d6000803e3d6000fd5b505050506040513d602081101561109857600080fd5b810190808051906020019092919050505061ffff169350600660009054906101000a900473ffffffffffffffffffffffffffffffffffffffff1673ffffffffffffffffffffffffffffffffffffffff16633e239e1a8e6040518263ffffffff167c010000000000000000000000000000000000000000000000000000000002815260040180828152602001915050602060405180830381600087803b15801561114057600080fd5b505af1158015611154573d6000803e3d6000fd5b505050506040513d602081101561116a57600080fd5b810190808051906020019092919050505061ffff169250600660009054906101000a900473ffffffffffffffffffffffffffffffffffffffff1673ffffffffffffffffffffffffffffffffffffffff1663fa93f8838e6040518263ffffffff167c010000000000000000000000000000000000000000000000000000000002815260040180828152602001915050602060405180830381600087803b15801561121257600080fd5b505af1158015611226573d6000803e3d6000fd5b505050506040513d602081101561123c57600080fd5b810190808051906020019092919050505061ffff169150600660009054906101000a900473ffffffffffffffffffffffffffffffffffffffff1673ffffffffffffffffffffffffffffffffffffffff16638aa001fc8e6040518263ffffffff167c010000000000000000000000000000000000000000000000000000000002815260040180828152602001915050602060405180830381600087803b1580156112e457600080fd5b505af11580156112f8573d6000803e3d6000fd5b505050506040513d602081101561130e57600080fd5b810190808051906020019092919050505061ffff1690508585858585859b509b509b509b509b509b5050505050505091939550919395565b60003373ffffffffffffffffffffffffffffffffffffffff16600860003373ffffffffffffffffffffffffffffffffffffffff1673ffffffffffffffffffffffffffffffffffffffff16815260200190815260200160002060000160009054906101000a900473ffffffffffffffffffffffffffffffffffffffff1673ffffffffffffffffffffffffffffffffffffffff1614156114725734600860003373ffffffffffffffffffffffffffffffffffffffff1673ffffffffffffffffffffffffffffffffffffffff1681526020019081526020016000206001015401600860003373ffffffffffffffffffffffffffffffffffffffff1673ffffffffffffffffffffffffffffffffffffffff1681526020019081526020016000206001018190555060019050611477565b600090505b90565b60006002826040518082805190602001908083835b6020831015156114b4578051825260208201915060208101905060208303925061148f565b6001836020036101000a0380198251168184511680821785525050505050509050019150509081526020016040518091039020600301549050919050565b600060016114fe611866565b14156115d55782600b60008573ffffffffffffffffffffffffffffffffffffffff1673ffffffffffffffffffffffffffffffffffffffff16815260200190815260200160002060000160006101000a81548173ffffffffffffffffffffffffffffffffffffffff021916908373ffffffffffffffffffffffffffffffffffffffff16021790555081600b60008573ffffffffffffffffffffffffffffffffffffffff1673ffffffffffffffffffffffffffffffffffffffff16815260200190815260200160002060010181905550600190506115da565b600090505b92915050565b60606000806002856040518082805190602001908083835b60208310151561161d57805182526020820191506020810190506020830392506115f8565b6001836020036101000a03801982511681845116808217855250505050505090500191505090815260200160405180910390206000016002866040518082805190602001908083835b60208310151561168b5780518252602082019150602081019050602083039250611666565b6001836020036101000a0380198251168184511680821785525050505050509050019150509081526020016040518091039020600101858154811015156116ce57fe5b9060005260206000200160009054906101000a900473ffffffffffffffffffffffffffffffffffffffff166002876040518082805190602001908083835b602083101515611731578051825260208201915060208101905060208303925061170c565b6001836020036101000a03801982511681845116808217855250505050505090500191505090815260200160405180910390206002018681548110151561177457fe5b9060005260206000200154828054600181600116156101000203166002900480601f0160208091040260200160405190810160405280929190818152602001828054600181600116156101000203166002900480156118145780601f106117e957610100808354040283529160200191611814565b820191906000526020600020905b8154815290600101906020018083116117f757829003601f168201915b505050505092509250925092509250925092565b60078181548110151561183757fe5b906000526020600020016000915054906101000a900473ffffffffffffffffffffffffffffffffffffffff1681565b6000600b60003373ffffffffffffffffffffffffffffffffffffffff1673ffffffffffffffffffffffffffffffffffffffff16815260200190815260200160002060010154905090565b60008173ffffffffffffffffffffffffffffffffffffffff16600860008473ffffffffffffffffffffffffffffffffffffffff1673ffffffffffffffffffffffffffffffffffffffff16815260200190815260200160002060000160009054906101000a900473ffffffffffffffffffffffffffffffffffffffff1673ffffffffffffffffffffffffffffffffffffffff161415156119525760009050611957565b600190505b919050565b60008060009054906101000a900473ffffffffffffffffffffffffffffffffffffffff1673ffffffffffffffffffffffffffffffffffffffff163373ffffffffffffffffffffffffffffffffffffffff16141561202c576001600a60008573ffffffffffffffffffffffffffffffffffffffff1673ffffffffffffffffffffffffffffffffffffffff16815260200190815260200160002060040154141561202b576001600460009054906101000a900473ffffffffffffffffffffffffffffffffffffffff1673ffffffffffffffffffffffffffffffffffffffff166322b05ed2846040518263ffffffff167c01000000000000000000000000000000000000000000000000000000000281526004018080602001828103825283818151815260200191508051906020019080838360005b83811015611aaa578082015181840152602081019050611a8f565b50505050905090810190601f168015611ad75780820380516001836020036101000a031916815260200191505b5092505050602060405180830381600087803b158015611af657600080fd5b505af1158015611b0a573d6000803e3d6000fd5b505050506040513d6020811015611b2057600080fd5b8101908080519060200190929190505050141561202a576003600460009054906101000a900473ffffffffffffffffffffffffffffffffffffffff1673ffffffffffffffffffffffffffffffffffffffff1663985ba97f846040518263ffffffff167c01000000000000000000000000000000000000000000000000000000000281526004018080602001828103825283818151815260200191508051906020019080838360005b83811015611be3578082015181840152602081019050611bc8565b50505050905090810190601f168015611c105780820380516001836020036101000a031916815260200191505b5092505050600060405180830381600087803b158015611c2f57600080fd5b505af1158015611c43573d6000803e3d6000fd5b505050506040513d6000823e3d601f19601f820116820180604052506020811015611c6d57600080fd5b810190808051640100000000811115611c8557600080fd5b82810190506020810184811115611c9b57600080fd5b8151856001820283011164010000000082111715611cb857600080fd5b50509291905050506040518082805190602001908083835b602083101515611cf55780518252602082019150602081019050602083039250611cd0565b6001836020036101000a03801982511681845116808217855250505050505090500191505090815260200160405180910390206001015460086000600460009054906101000a900473ffffffffffffffffffffffffffffffffffffffff1673ffffffffffffffffffffffffffffffffffffffff1663b19eb556866040518263ffffffff167c01000000000000000000000000000000000000000000000000000000000281526004018080602001828103825283818151815260200191508051906020019080838360005b83811015611dda578082015181840152602081019050611dbf565b50505050905090810190601f168015611e075780820380516001836020036101000a031916815260200191505b5092505050602060405180830381600087803b158015611e2657600080fd5b505af1158015611e3a573d6000803e3d6000fd5b505050506040513d6020811015611e5057600080fd5b810190808051906020019092919050505073ffffffffffffffffffffffffffffffffffffffff1673ffffffffffffffffffffffffffffffffffffffff168152602001908152602001600020600101540360086000600460009054906101000a900473ffffffffffffffffffffffffffffffffffffffff1673ffffffffffffffffffffffffffffffffffffffff1663b19eb556866040518263ffffffff167c01000000000000000000000000000000000000000000000000000000000281526004018080602001828103825283818151815260200191508051906020019080838360005b83811015611f4e578082015181840152602081019050611f33565b50505050905090810190601f168015611f7b5780820380516001836020036101000a031916815260200191505b5092505050602060405180830381600087803b158015611f9a57600080fd5b505af1158015611fae573d6000803e3d6000fd5b505050506040513d6020811015611fc457600080fd5b810190808051906020019092919050505073ffffffffffffffffffffffffffffffffffffffff1673ffffffffffffffffffffffffffffffffffffffff16815260200190815260200160002060010181905550612021828442612037565b60019050612031565b5b5b600090505b92915050565b60006002846040518082805190602001908083835b602083101515612071578051825260208201915060208101905060208303925061204c565b6001836020036101000a038019825116818451168082178552505050505050905001915050908152602001604051809103902060030154141561232457826002846040518082805190602001908083835b6020831015156120e757805182526020820191506020810190506020830392506120c2565b6001836020036101000a03801982511681845116808217855250505050505090500191505090815260200160405180910390206000019080519060200190612130929190612c79565b5060016002846040518082805190602001908083835b60208310151561216b5780518252602082019150602081019050602083039250612146565b6001836020036101000a03801982511681845116808217855250505050505090500191505090815260200160405180910390206001018390806001815401808255809150509060018203906000526020600020016000909192909190916101000a81548173ffffffffffffffffffffffffffffffffffffffff021916908373ffffffffffffffffffffffffffffffffffffffff160217905550505060016002846040518082805190602001908083835b602083101515612240578051825260208201915060208101905060208303925061221b565b6001836020036101000a0380198251168184511680821785525050505050509050019150509081526020016040518091039020600201829080600181540180825580915050906001820390600052602060002001600090919290919091505550506002836040518082805190602001908083835b6020831015156122d957805182526020820191506020810190506020830392506122b4565b6001836020036101000a038019825116818451168082178552505050505050905001915050908152602001604051809103902060030160008154809291906001019190505550612513565b60016002846040518082805190602001908083835b60208310151561235e5780518252602082019150602081019050602083039250612339565b6001836020036101000a03801982511681845116808217855250505050505090500191505090815260200160405180910390206001018390806001815401808255809150509060018203906000526020600020016000909192909190916101000a81548173ffffffffffffffffffffffffffffffffffffffff021916908373ffffffffffffffffffffffffffffffffffffffff160217905550505060016002846040518082805190602001908083835b602083101515612433578051825260208201915060208101905060208303925061240e565b6001836020036101000a0380198251168184511680821785525050505050509050019150509081526020016040518091039020600201829080600181540180825580915050906001820390600052602060002001600090919290919091505550506002836040518082805190602001908083835b6020831015156124cc57805182526020820191506020810190506020830392506124a7565b6001836020036101000a0380198251168184511680821785525050505050509050019150509081526020016040518091039020600301600081548092919060010191905055505b505050565b6000600980549050905090565b60098181548110151561253457fe5b906000526020600020016000915054906101000a900473ffffffffffffffffffffffffffffffffffffffff1681565b60008060015414156125b857816000806101000a81548173ffffffffffffffffffffffffffffffffffffffff021916908373ffffffffffffffffffffffffffffffffffffffff160217905550600190506125bd565b600090505b919050565b600042905090565b600080600860006007858154811015156125e057fe5b9060005260206000200160009054906101000a900473ffffffffffffffffffffffffffffffffffffffff1673ffffffffffffffffffffffffffffffffffffffff1673ffffffffffffffffffffffffffffffffffffffff16815260200190815260200160002060000160009054906101000a900473ffffffffffffffffffffffffffffffffffffffff166008600060078681548110151561267c57fe5b9060005260206000200160009054906101000a900473ffffffffffffffffffffffffffffffffffffffff1673ffffffffffffffffffffffffffffffffffffffff1673ffffffffffffffffffffffffffffffffffffffff1681526020019081526020016000206001015491509150915091565b806003836040518082805190602001908083835b6020831015156127275780518252602082019150602081019050602083039250612702565b6001836020036101000a0380198251168184511680821785525050505050509050019150509081526020016040518091039020600101819055505050565b6000806001612772611866565b14806127cb5750600560009054906101000a900473ffffffffffffffffffffffffffffffffffffffff1673ffffffffffffffffffffffffffffffffffffffff163373ffffffffffffffffffffffffffffffffffffffff16145b156128c657600860008473ffffffffffffffffffffffffffffffffffffffff1673ffffffffffffffffffffffffffffffffffffffff1681526020019081526020016000209050828160000160006101000a81548173ffffffffffffffffffffffffffffffffffffffff021916908373ffffffffffffffffffffffffffffffffffffffff160217905550600160078490806001815401808255809150509060018203906000526020600020016000909192909190916101000a81548173ffffffffffffffffffffffffffffffffffffffff021916908373ffffffffffffffffffffffffffffffffffffffff1602179055505050600191506128cb565b600091505b50919050565b6000600860008373ffffffffffffffffffffffffffffffffffffffff1673ffffffffffffffffffffffffffffffffffffffff168152602001908152602001600020600101549050919050565b600060608060606000600a60008773ffffffffffffffffffffffffffffffffffffffff1673ffffffffffffffffffffffffffffffffffffffff16815260200190815260200160002060000160009054906101000a900473ffffffffffffffffffffffffffffffffffffffff16600a60008873ffffffffffffffffffffffffffffffffffffffff1673ffffffffffffffffffffffffffffffffffffffff168152602001908152602001600020600101600a60008973ffffffffffffffffffffffffffffffffffffffff1673ffffffffffffffffffffffffffffffffffffffff168152602001908152602001600020600201600a60008a73ffffffffffffffffffffffffffffffffffffffff1673ffffffffffffffffffffffffffffffffffffffff168152602001908152602001600020600301600a60008b73ffffffffffffffffffffffffffffffffffffffff1673ffffffffffffffffffffffffffffffffffffffff16815260200190815260200160002060040154838054600181600116156101000203166002900480601f016020809104026020016040519081016040528092919081815260200182805460018160011615610100020316600290048015612b275780601f10612afc57610100808354040283529160200191612b27565b820191906000526020600020905b815481529060010190602001808311612b0a57829003601f168201915b50505050509350828054600181600116156101000203166002900480601f016020809104026020016040519081016040528092919081815260200182805460018160011615610100020316600290048015612bc35780601f10612b9857610100808354040283529160200191612bc3565b820191906000526020600020905b815481529060010190602001808311612ba657829003601f168201915b50505050509250818054600181600116156101000203166002900480601f016020809104026020016040519081016040528092919081815260200182805460018160011615610100020316600290048015612c5f5780601f10612c3457610100808354040283529160200191612c5f565b820191906000526020600020905b815481529060010190602001808311612c4257829003601f168201915b505050505091509450945094509450945091939590929450565b828054600181600116156101000203166002900490600052602060002090601f016020900481019282601f10612cba57805160ff1916838001178555612ce8565b82800160010185558215612ce8579182015b82811115612ce7578251825591602001919060010190612ccc565b5b509050612cf59190612cf9565b5090565b612d1b91905b80821115612d17576000816000905550600101612cff565b5090565b905600a165627a7a72305820d084f3aed646cc10c923e41a29b20172e1dd57cec1a30ac45b2a30b566e894660029",
  "source": "    pragma solidity ^0.4.21;\n\ncontract Vehicles{\n    \n    function getStatus(string) public returns(int){}\n    \n    function getType(string) public view returns(string){}\n    \n    function  getLastOwner(string) public  view returns (address){}\n}\n\ncontract DateTime{\n    function getYear(uint256) constant returns (uint16) {}\n    function getMonth(uint256) constant returns (uint16) {}\n    function getDay(uint256) constant returns (uint16) {}\n    function getHour(uint256) constant returns (uint16) {}\n    function getMinute(uint256) constant returns (uint16) {}\n    function getSecond(uint256) constant returns (uint16) {}\n}\n\n\n\ncontract BotManagement{\n    \n    address botAddress;\n    int completeSetup=0;\n    \n    struct Log{\n        string plate_id;\n        address[] botAddress;\n        uint256[] timestamp;\n        uint256 length;\n    }\n    \n    mapping(string => Log) logs;\n    \n    function addLog(string plate_id, address bot_address, uint256 timestamp) public {\n        if (logs[plate_id].length ==0){\n            logs[plate_id].plate_id = plate_id;\n             logs[plate_id].botAddress.push(bot_address) -1;\n             logs[plate_id].timestamp.push(timestamp) -1;\n             logs[plate_id].length++;\n        }\n        else{\n             logs[plate_id].botAddress.push(bot_address) -1;\n             logs[plate_id].timestamp.push(timestamp) -1;\n             logs[plate_id].length++;\n        }\n    }\n    \n    function getLogs(string plate_id, uint256 index) public view returns(string, address, uint256){\n        return (logs[plate_id].plate_id, logs[plate_id].botAddress[index], logs[plate_id].timestamp[index]);\n    }\n    \n    function getLogsLength(string plate_id) public view returns(uint256){\n        return logs[plate_id].length;\n    }\n    \n    struct Prices{\n            string vehicleType;\n            int256 price;\n    }\n    \n    mapping(string => Prices) priceList;\n        \n    function setPrice(string _type, int256 _price) public{\n        priceList[_type].price = _price;\n    }\n        \n    function setBotAddr(address _address) public returns (bool){\n        if (completeSetup ==0){\n            botAddress = _address;\n            // completeSetup =1;    \n            return true;\n        }\n        return false;\n    }\n    \n    function getAccountLenght() public constant returns(uint count) {\n        return accountList.length;\n    }\n    \n    \n    function getBotLenght() public constant returns(uint count) {\n        return botList.length;\n    }\n    \n   \n    \n    Vehicles vehiclesContract;\n    address vehiclesContractAddr;\n    DateTime dateTimeContract;\n    \n    constructor(address _vaddress, address _address) public{\n        vehiclesContractAddr = _vaddress;\n        vehiclesContract = Vehicles(_vaddress);\n        permissionList[_address].owner = _address;\n        permissionList[_address].typePermis = 1;\n        dateTimeContract = DateTime(address(0xe8660491d945560fecb719bdb96479bed17c577c));\n    }\n    \n    function getDate(uint256 timestamp) public view returns(uint256, uint256, uint256, uint256, uint256, uint256){\n        uint256 _year = dateTimeContract.getYear(timestamp);\n        uint256 _month = dateTimeContract.getMonth(timestamp);\n        uint256 _day = dateTimeContract.getDay(timestamp);\n        uint256 _hour = dateTimeContract.getHour(timestamp);\n        uint256 _minute = dateTimeContract.getMinute(timestamp);\n        uint256 _second = dateTimeContract.getSecond(timestamp);\n        return (_year, _month, _day, _hour, _minute, _second);\n    }\n    \n    struct Account{\n        address owner;\n        int256 balance;\n    }\n    \n    address[] public accountList;\n    \n    mapping (address => Account) accounts;\n    \n    struct Bot{\n        address owner;\n        string addressInfo;\n        string Lat;\n        string Long;\n        int status; //0: deactive, 1: active;\n    }\n    \n    address[] public botList;\n    \n    mapping( address => Bot) Bots;\n    \n    function getBotInfo(address _address) public view returns(address, string, string, string, int){\n        return (Bots[_address].owner, Bots[_address].addressInfo, Bots[_address].Lat, Bots[_address].Long, Bots[_address].status);\n    }\n    \n    struct Permission{\n        address owner;\n        int256 typePermis;\n        //0. B thu hi cc quyn.\n        //1. Cp quyn cho cc account khc v cc quyn cn li.\n        //2. Ch c quyn ng k phng tin, ko c quyn cp quyn cho account khc.\n    }\n    \n    mapping (address => Permission) permissionList;\n    \n    function checkPermission() public view returns(int256){\n            return permissionList[msg.sender].typePermis;\n    }\n    \n    function addPermission(address _address, int256 _type) public returns(bool){\n    if (checkPermission() == 1) {\n        permissionList[_address].owner = _address;\n        permissionList[_address].typePermis = _type;\n        return true;\n    }\n    return false;\n    }\n    \n    \n    function addBot(address _address, string _addressInfo, string _Lat, string _Long) public returns(bool){\n        if (checkPermission()==1){\n            Bot storage tmp_bot = Bots[_address];\n            tmp_bot.owner=_address;\n            tmp_bot.addressInfo=_addressInfo;\n            tmp_bot.Lat=_Lat;\n            tmp_bot.Long=_Long;\n            tmp_bot.status= 1;\n            botList.push(_address) -1;\n            return true;\n        }\n        return false;\n    }\n    \n    function addAccount(address _address) public returns(bool){\n        if (checkPermission()==1 || msg.sender == vehiclesContractAddr){\n            Account storage tmp_account = accounts[_address];\n            tmp_account.owner = _address;\n            accountList.push(_address) -1;\n            return true;\n        }\n        return false;\n    }\n    \n   \n    \n    function checkAccount(address _address) public view returns(bool){\n        if (accounts[_address].owner!=_address){\n            return false;\n        }\n        return true;\n    }\n    \n    function getAccount(uint256 index) public view returns (address, int256){\n        return (accounts[accountList[index]].owner, accounts[accountList[index]].balance);\n    }\n    \n    function addCoin(address _address) public payable returns (bool){\n        if (checkAccount(_address)){\n            accounts[_address].balance=accounts[_address].balance+ (int256)(msg.value);\n        }\n    }\n    \n\n    function addCoin() public payable returns(bool){\n        if (accounts[msg.sender].owner==msg.sender){\n            accounts[msg.sender].balance=accounts[msg.sender].balance+ (int256)(msg.value);\n            return true;\n        }\n        return false;\n    }\n\n    function getBalance(address _address) public view returns(int256){\n        return accounts[_address].balance;\n    }\n    \n    function getNow() public view returns (uint256){\n        return now;\n    }\n    \n    \n    function verifyVehicle(address _address, string _plate_id) public returns (bool){\n        if (msg.sender==botAddress){\n            if (Bots[_address].status ==1){\n                if (vehiclesContract.getStatus(_plate_id) == 1)\n                {\n                    // address owner = vehiclesContract.getOwnerInfo(_plate_id);\n                    accounts[vehiclesContract.getLastOwner(_plate_id)].balance =accounts[vehiclesContract.getLastOwner(_plate_id)].balance-priceList[vehiclesContract.getType(_plate_id)].price;\n                    addLog(_plate_id, _address, now);\n                    return true;\n                }\n            }\n        }\n       return false;\n    }\n}",
  "sourcePath": "/Users/ps/Desktop/Hackathon/Train/Bot-Management/contracts/BotManagement.sol",
  "compiler": {
    "name": "solc",
    "version": "0.4.24+commit.e67f0147.Emscripten.clang"
  },
  "schemaVersion": "2.0.1",
  "updatedAt": "2018-08-27T11:23:09.478Z"
}