{
  "contractName": "Vehicles",
  "abi": [
    {
      "constant": false,
      "inputs": [
        {
          "name": "",
          "type": "string"
        }
      ],
      "name": "getStatus",
      "outputs": [
        {
          "name": "",
          "type": "int256"
        }
      ],
      "payable": false,
      "stateMutability": "nonpayable",
      "type": "function"
    },
    {
      "constant": true,
      "inputs": [
        {
          "name": "",
          "type": "string"
        }
      ],
      "name": "getLastOwner",
      "outputs": [
        {
          "name": "",
          "type": "address"
        }
      ],
      "payable": false,
      "stateMutability": "view",
      "type": "function"
    }
  ],
  "bytecode": "0x608060405234801561001057600080fd5b506101b1806100206000396000f30060806040526004361061004c576000357c0100000000000000000000000000000000000000000000000000000000900463ffffffff16806322b05ed214610051578063b19eb556146100ce575b600080fd5b34801561005d57600080fd5b506100b8600480360381019080803590602001908201803590602001908080601f0160208091040260200160405190810160405280939291908181526020018383808284378201915050505050509192919290505050610177565b6040518082815260200191505060405180910390f35b3480156100da57600080fd5b50610135600480360381019080803590602001908201803590602001908080601f016020809104026020016040519081016040528093929190818152602001838380828437820191505050505050919291929050505061017e565b604051808273ffffffffffffffffffffffffffffffffffffffff1673ffffffffffffffffffffffffffffffffffffffff16815260200191505060405180910390f35b6000919050565b60009190505600a165627a7a72305820c552a2e398f25c6f715ab3aa6cdd6e66e74092f4272e6d0f632032ea5bfb8a7e0029",
  "source": "    pragma solidity ^0.4.21;\n\ncontract Vehicles{\n    \n    function getStatus(string) public returns(int){}\n    \n    function  getLastOwner(string) public  view returns (address){}\n}\n\ncontract BotManagement{\n    \n    address botAddress;\n    int completeSetup=0;\n    \n    \n    function setBotAddr(address _address) public returns (bool){\n        if (completeSetup ==0){\n            botAddress = _address;\n            // completeSetup =1;    \n            return true;\n        }\n        return false;\n    }\n    \n    function getAccountLenght() public constant returns(uint count) {\n        return accountList.length;\n    }\n    \n    \n    function getBotLenght() public constant returns(uint count) {\n        return botList.length;\n    }\n    \n    Vehicles vehiclesContract;\n    address vehiclesContractAddr;\n    constructor(address _vaddress, address _address) public{\n        vehiclesContractAddr = _vaddress;\n        vehiclesContract = Vehicles(_vaddress);\n        permissionList[_address].owner = _address;\n        permissionList[_address].typePermis = 1;\n    }\n    \n    struct Price{\n        string typeofVehicle;\n        uint256 priceforVehicle;\n    }\n    \n    mapping (string => Price) pricelist;\n    \n    \n    struct Account{\n        address owner;\n        int256 balance;\n    }\n    \n    address[] public accountList;\n    \n    mapping (address => Account) accounts;\n    \n    struct Bot{\n        address owner;\n        int status; //0: deactive, 1: active;\n    }\n    \n    address[] public botList;\n    \n    mapping( address => Bot) Bots;\n    \n    \n    struct Permission{\n        address owner;\n        int256 typePermis;\n        //0. Bị thu hồi các quyền.\n        //1. Cấp quyền cho các account khác và các quyền còn lại.\n        //2. Chỉ có quyền đăng ký phương tiện, ko có quyền cấp quyền cho account khác.\n    }\n    \n    mapping (address => Permission) permissionList;\n    \n    function checkPermission() public view returns(int256){\n            return permissionList[msg.sender].typePermis;\n    }\n    \n    function addPermission(address _address, int256 _type) public returns(bool){\n    if (checkPermission() == 1) {\n        permissionList[_address].owner = _address;\n        permissionList[_address].typePermis = _type;\n        return true;\n    }\n    return false;\n    }\n    \n    \n    function addBot(address _address) public returns(bool){\n        if (checkPermission()==1){\n            Bot storage tmp_bot = Bots[_address];\n            tmp_bot.owner=_address;\n            tmp_bot.status= 1;\n            botList.push(_address) -1;\n            return true;\n        }\n        return false;\n    }\n    \n    function addAccount(address _address) public returns(bool){\n        if (checkPermission()==1 || msg.sender == vehiclesContractAddr){\n            Account storage tmp_account = accounts[_address];\n            tmp_account.owner = _address;\n            accountList.push(_address) -1;\n            return true;\n        }\n        return false;\n    }\n    \n   \n    \n    function checkAccount(address _address) public view returns(bool){\n        if (accounts[_address].owner!=_address){\n            return false;\n        }\n        return true;\n    }\n    \n    function getAccount(uint256 index) public view returns (address, int256){\n        return (accounts[accountList[index]].owner, accounts[accountList[index]].balance);\n    }\n    \n    function addCoin(address _address) public payable returns (bool){\n        if (checkAccount(_address)){\n            accounts[_address].balance=accounts[_address].balance+ (int256)(msg.value);\n        }\n    }\n    \n\n    function addCoin() public payable returns(bool){\n        if (accounts[msg.sender].owner==msg.sender){\n            accounts[msg.sender].balance=accounts[msg.sender].balance+ (int256)(msg.value);\n            return true;\n        }\n        return false;\n    }\n\n    function getBalance(address _address) public view returns(int256){\n        return accounts[_address].balance;\n    }\n    \n    function verifyVehicle(address _address, string _plate_id) public returns (bool){\n        if (msg.sender==botAddress){\n            if (Bots[_address].status ==1){\n                if (vehiclesContract.getStatus(_plate_id) == 1)\n                {\n                    // address owner = vehiclesContract.getOwnerInfo(_plate_id);\n                    accounts[vehiclesContract.getLastOwner(_plate_id)].balance =accounts[vehiclesContract.getLastOwner(_plate_id)].balance-100;\n                    return true;\n                }\n            }\n        }\n       return false;\n    }\n}",
  "sourcePath": "/Users/ps/Desktop/Hackathon/Train/Bot-Management/contracts/BotManagement.sol",
  "compiler": {
    "name": "solc",
    "version": "0.4.24+commit.e67f0147.Emscripten.clang"
  },
  "schemaVersion": "2.0.1",
  "updatedAt": "2018-08-27T04:15:07.701Z"
}